{
	"data": {
		"bytecode": {
			"linkReferences": {},
			"object": "608060405234801561001057600080fd5b50610101806100206000396000f3006080604052600436106049576000357c0100000000000000000000000000000000000000000000000000000000900463ffffffff16806307f3f97814604e57806340a3d246146062575b600080fd5b348015605957600080fd5b506060608a565b005b348015606d57600080fd5b506074608f565b6040518082815260200191505060405180910390f35b600080fd5b600080600154111560a657600060018190555060ae565b600180819055505b6000600254111560c457600060028190555060cd565b60016002819055505b6113379050905600a165627a7a72305820d36abe28642a876a80c9d37d6efc642d9b1948686d6b445b1cd0ca20c37fe9df0029",
			"opcodes": "PUSH1 0x80 PUSH1 0x40 MSTORE CALLVALUE DUP1 ISZERO PUSH2 0x10 JUMPI PUSH1 0x0 DUP1 REVERT JUMPDEST POP PUSH2 0x101 DUP1 PUSH2 0x20 PUSH1 0x0 CODECOPY PUSH1 0x0 RETURN STOP PUSH1 0x80 PUSH1 0x40 MSTORE PUSH1 0x4 CALLDATASIZE LT PUSH1 0x49 JUMPI PUSH1 0x0 CALLDATALOAD PUSH29 0x100000000000000000000000000000000000000000000000000000000 SWAP1 DIV PUSH4 0xFFFFFFFF AND DUP1 PUSH4 0x7F3F978 EQ PUSH1 0x4E JUMPI DUP1 PUSH4 0x40A3D246 EQ PUSH1 0x62 JUMPI JUMPDEST PUSH1 0x0 DUP1 REVERT JUMPDEST CALLVALUE DUP1 ISZERO PUSH1 0x59 JUMPI PUSH1 0x0 DUP1 REVERT JUMPDEST POP PUSH1 0x60 PUSH1 0x8A JUMP JUMPDEST STOP JUMPDEST CALLVALUE DUP1 ISZERO PUSH1 0x6D JUMPI PUSH1 0x0 DUP1 REVERT JUMPDEST POP PUSH1 0x74 PUSH1 0x8F JUMP JUMPDEST PUSH1 0x40 MLOAD DUP1 DUP3 DUP2 MSTORE PUSH1 0x20 ADD SWAP2 POP POP PUSH1 0x40 MLOAD DUP1 SWAP2 SUB SWAP1 RETURN JUMPDEST PUSH1 0x0 DUP1 REVERT JUMPDEST PUSH1 0x0 DUP1 PUSH1 0x1 SLOAD GT ISZERO PUSH1 0xA6 JUMPI PUSH1 0x0 PUSH1 0x1 DUP2 SWAP1 SSTORE POP PUSH1 0xAE JUMP JUMPDEST PUSH1 0x1 DUP1 DUP2 SWAP1 SSTORE POP JUMPDEST PUSH1 0x0 PUSH1 0x2 SLOAD GT ISZERO PUSH1 0xC4 JUMPI PUSH1 0x0 PUSH1 0x2 DUP2 SWAP1 SSTORE POP PUSH1 0xCD JUMP JUMPDEST PUSH1 0x1 PUSH1 0x2 DUP2 SWAP1 SSTORE POP JUMPDEST PUSH2 0x1337 SWAP1 POP SWAP1 JUMP STOP LOG1 PUSH6 0x627A7A723058 KECCAK256 0xd3 PUSH11 0xBE28642A876A80C9D37D6E 0xfc PUSH5 0x2D9B194868 PUSH14 0x6B445B1CD0CA20C37FE9DF002900 "
		},
		"gasEstimates": {
			"creation": {
				"codeDepositCost": "51400",
				"executionCost": "105",
				"totalCost": "51505"
			},
			"external": {
				"thrower()": "130",
				"toggle()": "40706"
			}
		},
		"methodIdentifiers": {
			"thrower()": "07f3f978",
			"toggle()": "40a3d246"
		}
	},
	"abi": [
		{
			"constant": false,
			"inputs": [],
			"name": "thrower",
			"outputs": [],
			"payable": false,
			"stateMutability": "nonpayable",
			"type": "function"
		},
		{
			"constant": false,
			"inputs": [],
			"name": "toggle",
			"outputs": [
				{
					"name": "",
					"type": "uint256"
				}
			],
			"payable": false,
			"stateMutability": "nonpayable",
			"type": "function"
		}
	]
}