{
	"data": {
		"bytecode": {
			"linkReferences": {},
			"object": "608060405234801561001057600080fd5b5060ec8061001f6000396000f3006080604052600436106049576000357c0100000000000000000000000000000000000000000000000000000000900463ffffffff1680630dbe671f14604e578063ee919d50146076575b600080fd5b348015605957600080fd5b50606060b4565b6040518082815260200191505060405180910390f35b348015608157600080fd5b50609e6004803603810190808035906020019092919050505060b9565b6040518082815260200191505060405180910390f35b600090565b60009190505600a165627a7a723058201c18f9b160aa583229bf609f35859fdc783187ea674ea6a1f9d55766650637050029",
			"opcodes": "PUSH1 0x80 PUSH1 0x40 MSTORE CALLVALUE DUP1 ISZERO PUSH2 0x10 JUMPI PUSH1 0x0 DUP1 REVERT JUMPDEST POP PUSH1 0xEC DUP1 PUSH2 0x1F PUSH1 0x0 CODECOPY PUSH1 0x0 RETURN STOP PUSH1 0x80 PUSH1 0x40 MSTORE PUSH1 0x4 CALLDATASIZE LT PUSH1 0x49 JUMPI PUSH1 0x0 CALLDATALOAD PUSH29 0x100000000000000000000000000000000000000000000000000000000 SWAP1 DIV PUSH4 0xFFFFFFFF AND DUP1 PUSH4 0xDBE671F EQ PUSH1 0x4E JUMPI DUP1 PUSH4 0xEE919D50 EQ PUSH1 0x76 JUMPI JUMPDEST PUSH1 0x0 DUP1 REVERT JUMPDEST CALLVALUE DUP1 ISZERO PUSH1 0x59 JUMPI PUSH1 0x0 DUP1 REVERT JUMPDEST POP PUSH1 0x60 PUSH1 0xB4 JUMP JUMPDEST PUSH1 0x40 MLOAD DUP1 DUP3 DUP2 MSTORE PUSH1 0x20 ADD SWAP2 POP POP PUSH1 0x40 MLOAD DUP1 SWAP2 SUB SWAP1 RETURN JUMPDEST CALLVALUE DUP1 ISZERO PUSH1 0x81 JUMPI PUSH1 0x0 DUP1 REVERT JUMPDEST POP PUSH1 0x9E PUSH1 0x4 DUP1 CALLDATASIZE SUB DUP2 ADD SWAP1 DUP1 DUP1 CALLDATALOAD SWAP1 PUSH1 0x20 ADD SWAP1 SWAP3 SWAP2 SWAP1 POP POP POP PUSH1 0xB9 JUMP JUMPDEST PUSH1 0x40 MLOAD DUP1 DUP3 DUP2 MSTORE PUSH1 0x20 ADD SWAP2 POP POP PUSH1 0x40 MLOAD DUP1 SWAP2 SUB SWAP1 RETURN JUMPDEST PUSH1 0x0 SWAP1 JUMP JUMPDEST PUSH1 0x0 SWAP2 SWAP1 POP JUMP STOP LOG1 PUSH6 0x627A7A723058 KECCAK256 SHR XOR 0xf9 0xb1 PUSH1 0xAA PC ORIGIN 0x29 0xbf PUSH1 0x9F CALLDATALOAD DUP6 SWAP16 0xdc PUSH25 0x3187EA674EA6A1F9D557666506370500290000000000000000 "
		},
		"gasEstimates": {
			"creation": {
				"codeDepositCost": "47200",
				"executionCost": "99",
				"totalCost": "47299"
			},
			"external": {
				"a()": "194",
				"setA(uint256)": "277"
			}
		},
		"methodIdentifiers": {
			"a()": "0dbe671f",
			"setA(uint256)": "ee919d50"
		}
	},
	"abi": [
		{
			"constant": true,
			"inputs": [],
			"name": "a",
			"outputs": [
				{
					"name": "",
					"type": "uint256"
				}
			],
			"payable": false,
			"stateMutability": "pure",
			"type": "function"
		},
		{
			"constant": false,
			"inputs": [
				{
					"name": "",
					"type": "uint256"
				}
			],
			"name": "setA",
			"outputs": [
				{
					"name": "",
					"type": "uint256"
				}
			],
			"payable": false,
			"stateMutability": "nonpayable",
			"type": "function"
		}
	]
}