{
	"data": {
		"bytecode": {
			"linkReferences": {},
			"object": "608060405234801561001057600080fd5b5060405160208061022983398101806040528101908080519060200190929190505050806000806101000a81548173ffffffffffffffffffffffffffffffffffffffff021916908373ffffffffffffffffffffffffffffffffffffffff160217905550506101a6806100836000396000f300608060405260043610610041576000357c0100000000000000000000000000000000000000000000000000000000900463ffffffff1680638976762d14610046575b600080fd5b34801561005257600080fd5b506100716004803603810190808035906020019092919050505061008b565b604051808215151515815260200191505060405180910390f35b60008060009054906101000a900473ffffffffffffffffffffffffffffffffffffffff1673ffffffffffffffffffffffffffffffffffffffff1660405180807f736574412875696e743235362900000000000000000000000000000000000000815250600d01905060405180910390207c01000000000000000000000000000000000000000000000000000000009004836040518263ffffffff167c0100000000000000000000000000000000000000000000000000000000028152600401808281526020019150506000604051808303816000875af192505050151561017157600080fd5b600190509190505600a165627a7a7230582084fe4c0f45f9b0bba02b169c97a8219faf06b9757e0c82c7e0790d7d80c270b40029",
			"opcodes": "PUSH1 0x80 PUSH1 0x40 MSTORE CALLVALUE DUP1 ISZERO PUSH2 0x10 JUMPI PUSH1 0x0 DUP1 REVERT JUMPDEST POP PUSH1 0x40 MLOAD PUSH1 0x20 DUP1 PUSH2 0x229 DUP4 CODECOPY DUP2 ADD DUP1 PUSH1 0x40 MSTORE DUP2 ADD SWAP1 DUP1 DUP1 MLOAD SWAP1 PUSH1 0x20 ADD SWAP1 SWAP3 SWAP2 SWAP1 POP POP POP DUP1 PUSH1 0x0 DUP1 PUSH2 0x100 EXP DUP2 SLOAD DUP2 PUSH20 0xFFFFFFFFFFFFFFFFFFFFFFFFFFFFFFFFFFFFFFFF MUL NOT AND SWAP1 DUP4 PUSH20 0xFFFFFFFFFFFFFFFFFFFFFFFFFFFFFFFFFFFFFFFF AND MUL OR SWAP1 SSTORE POP POP PUSH2 0x1A6 DUP1 PUSH2 0x83 PUSH1 0x0 CODECOPY PUSH1 0x0 RETURN STOP PUSH1 0x80 PUSH1 0x40 MSTORE PUSH1 0x4 CALLDATASIZE LT PUSH2 0x41 JUMPI PUSH1 0x0 CALLDATALOAD PUSH29 0x100000000000000000000000000000000000000000000000000000000 SWAP1 DIV PUSH4 0xFFFFFFFF AND DUP1 PUSH4 0x8976762D EQ PUSH2 0x46 JUMPI JUMPDEST PUSH1 0x0 DUP1 REVERT JUMPDEST CALLVALUE DUP1 ISZERO PUSH2 0x52 JUMPI PUSH1 0x0 DUP1 REVERT JUMPDEST POP PUSH2 0x71 PUSH1 0x4 DUP1 CALLDATASIZE SUB DUP2 ADD SWAP1 DUP1 DUP1 CALLDATALOAD SWAP1 PUSH1 0x20 ADD SWAP1 SWAP3 SWAP2 SWAP1 POP POP POP PUSH2 0x8B JUMP JUMPDEST PUSH1 0x40 MLOAD DUP1 DUP3 ISZERO ISZERO ISZERO ISZERO DUP2 MSTORE PUSH1 0x20 ADD SWAP2 POP POP PUSH1 0x40 MLOAD DUP1 SWAP2 SUB SWAP1 RETURN JUMPDEST PUSH1 0x0 DUP1 PUSH1 0x0 SWAP1 SLOAD SWAP1 PUSH2 0x100 EXP SWAP1 DIV PUSH20 0xFFFFFFFFFFFFFFFFFFFFFFFFFFFFFFFFFFFFFFFF AND PUSH20 0xFFFFFFFFFFFFFFFFFFFFFFFFFFFFFFFFFFFFFFFF AND PUSH1 0x40 MLOAD DUP1 DUP1 PUSH32 0x736574412875696E743235362900000000000000000000000000000000000000 DUP2 MSTORE POP PUSH1 0xD ADD SWAP1 POP PUSH1 0x40 MLOAD DUP1 SWAP2 SUB SWAP1 KECCAK256 PUSH29 0x100000000000000000000000000000000000000000000000000000000 SWAP1 DIV DUP4 PUSH1 0x40 MLOAD DUP3 PUSH4 0xFFFFFFFF AND PUSH29 0x100000000000000000000000000000000000000000000000000000000 MUL DUP2 MSTORE PUSH1 0x4 ADD DUP1 DUP3 DUP2 MSTORE PUSH1 0x20 ADD SWAP2 POP POP PUSH1 0x0 PUSH1 0x40 MLOAD DUP1 DUP4 SUB DUP2 PUSH1 0x0 DUP8 GAS CALL SWAP3 POP POP POP ISZERO ISZERO PUSH2 0x171 JUMPI PUSH1 0x0 DUP1 REVERT JUMPDEST PUSH1 0x1 SWAP1 POP SWAP2 SWAP1 POP JUMP STOP LOG1 PUSH6 0x627A7A723058 KECCAK256 DUP5 INVALID 0x4c 0xf GASLIMIT 0xf9 0xb0 0xbb LOG0 0x2b AND SWAP13 SWAP8 0xa8 0x21 SWAP16 0xaf MOD 0xb9 PUSH22 0x7E0C82C7E0790D7D80C270B400290000000000000000 "
		},
		"gasEstimates": {
			"creation": {
				"codeDepositCost": "84400",
				"executionCost": "20488",
				"totalCost": "104888"
			},
			"external": {
				"setA_Signature(uint256)": "infinite"
			}
		},
		"methodIdentifiers": {
			"setA_Signature(uint256)": "8976762d"
		}
	},
	"abi": [
		{
			"constant": false,
			"inputs": [
				{
					"name": "_val",
					"type": "uint256"
				}
			],
			"name": "setA_Signature",
			"outputs": [
				{
					"name": "success",
					"type": "bool"
				}
			],
			"payable": false,
			"stateMutability": "nonpayable",
			"type": "function"
		},
		{
			"inputs": [
				{
					"name": "_t",
					"type": "address"
				}
			],
			"payable": false,
			"stateMutability": "nonpayable",
			"type": "constructor"
		}
	]
}