{
	"data": {
		"bytecode": {
			"linkReferences": {},
			"object": "608060405234801561001057600080fd5b50610117806100206000396000f3fe6080604052348015600f57600080fd5b506004361060285760003560e01c806372ae734e14602d575b600080fd5b60a76004803603610120811015604257600080fd5b8101908080359060200190929190803590602001909291908035906020019092919080359060200190929190803590602001909291908035906020019092919080359060200190929190803590602001909291908035906020019092919050505060bd565b6040518082815260200191505060405180910390f35b60006007600660056004600360028f0101010101019050999850505050505050505056fea2646970667358221220d2d6f41a2e2b88eef32542e62a2d720d201c7c8e2d1c0afd122aa7aa4e12660764736f6c63430007010033",
			"opcodes": "PUSH1 0x80 PUSH1 0x40 MSTORE CALLVALUE DUP1 ISZERO PUSH2 0x10 JUMPI PUSH1 0x0 DUP1 REVERT JUMPDEST POP PUSH2 0x117 DUP1 PUSH2 0x20 PUSH1 0x0 CODECOPY PUSH1 0x0 RETURN INVALID PUSH1 0x80 PUSH1 0x40 MSTORE CALLVALUE DUP1 ISZERO PUSH1 0xF JUMPI PUSH1 0x0 DUP1 REVERT JUMPDEST POP PUSH1 0x4 CALLDATASIZE LT PUSH1 0x28 JUMPI PUSH1 0x0 CALLDATALOAD PUSH1 0xE0 SHR DUP1 PUSH4 0x72AE734E EQ PUSH1 0x2D JUMPI JUMPDEST PUSH1 0x0 DUP1 REVERT JUMPDEST PUSH1 0xA7 PUSH1 0x4 DUP1 CALLDATASIZE SUB PUSH2 0x120 DUP2 LT ISZERO PUSH1 0x42 JUMPI PUSH1 0x0 DUP1 REVERT JUMPDEST DUP2 ADD SWAP1 DUP1 DUP1 CALLDATALOAD SWAP1 PUSH1 0x20 ADD SWAP1 SWAP3 SWAP2 SWAP1 DUP1 CALLDATALOAD SWAP1 PUSH1 0x20 ADD SWAP1 SWAP3 SWAP2 SWAP1 DUP1 CALLDATALOAD SWAP1 PUSH1 0x20 ADD SWAP1 SWAP3 SWAP2 SWAP1 DUP1 CALLDATALOAD SWAP1 PUSH1 0x20 ADD SWAP1 SWAP3 SWAP2 SWAP1 DUP1 CALLDATALOAD SWAP1 PUSH1 0x20 ADD SWAP1 SWAP3 SWAP2 SWAP1 DUP1 CALLDATALOAD SWAP1 PUSH1 0x20 ADD SWAP1 SWAP3 SWAP2 SWAP1 DUP1 CALLDATALOAD SWAP1 PUSH1 0x20 ADD SWAP1 SWAP3 SWAP2 SWAP1 DUP1 CALLDATALOAD SWAP1 PUSH1 0x20 ADD SWAP1 SWAP3 SWAP2 SWAP1 DUP1 CALLDATALOAD SWAP1 PUSH1 0x20 ADD SWAP1 SWAP3 SWAP2 SWAP1 POP POP POP PUSH1 0xBD JUMP JUMPDEST PUSH1 0x40 MLOAD DUP1 DUP3 DUP2 MSTORE PUSH1 0x20 ADD SWAP2 POP POP PUSH1 0x40 MLOAD DUP1 SWAP2 SUB SWAP1 RETURN JUMPDEST PUSH1 0x0 PUSH1 0x7 PUSH1 0x6 PUSH1 0x5 PUSH1 0x4 PUSH1 0x3 PUSH1 0x2 DUP16 ADD ADD ADD ADD ADD ADD SWAP1 POP SWAP10 SWAP9 POP POP POP POP POP POP POP POP POP JUMP INVALID LOG2 PUSH5 0x6970667358 0x22 SLT KECCAK256 0xD2 0xD6 DELEGATECALL BYTE 0x2E 0x2B DUP9 0xEE RETURN 0x25 TIMESTAMP 0xE6 0x2A 0x2D PUSH19 0xD201C7C8E2D1C0AFD122AA7AA4E1266076473 PUSH16 0x6C634300070100330000000000000000 "
		},
		"gasEstimates": {
			"creation": {
				"codeDepositCost": "55800",
				"executionCost": "105",
				"totalCost": "55905"
			},
			"external": {
				"addUints(uint256,uint256,uint256,uint256,uint256,uint256,uint256,uint256,uint256)": "546"
			}
		},
		"methodIdentifiers": {
			"addUints(uint256,uint256,uint256,uint256,uint256,uint256,uint256,uint256,uint256)": "72ae734e"
		}
	},
	"abi": [
		{
			"inputs": [
				{
					"internalType": "uint256",
					"name": "a",
					"type": "uint256"
				},
				{
					"internalType": "uint256",
					"name": "b",
					"type": "uint256"
				},
				{
					"internalType": "uint256",
					"name": "c",
					"type": "uint256"
				},
				{
					"internalType": "uint256",
					"name": "d",
					"type": "uint256"
				},
				{
					"internalType": "uint256",
					"name": "e",
					"type": "uint256"
				},
				{
					"internalType": "uint256",
					"name": "f",
					"type": "uint256"
				},
				{
					"internalType": "uint256",
					"name": "g",
					"type": "uint256"
				},
				{
					"internalType": "uint256",
					"name": "h",
					"type": "uint256"
				},
				{
					"internalType": "uint256",
					"name": "i",
					"type": "uint256"
				}
			],
			"name": "addUints",
			"outputs": [
				{
					"internalType": "uint256",
					"name": "",
					"type": "uint256"
				}
			],
			"stateMutability": "pure",
			"type": "function"
		}
	]
}